:020000040000fa
:080000000002040000000000f2
:020000040000fa
:100400006f8220000e7f22000e0188000000000095
:1004100000012000200288000c000700608c2100f1
:100420000100200011000700000020000000e00093
:100430000200320000000200000000007e03020003
:10044000000000000040da000000fe004440a90067
:10045000000020000000e000030032000000200047
:10046000a00188004440a800000006009101880017
:10047000800078000000eb0015003700e2804000ab
:1004800032a0b4009101ba00e280400032a0b40072
:100490009102ba00e280400032a0b4000002eb00fa
:1004a000472bde00f507b200602ce10004003a00a3
:1004b0000059eb008301e900fdff3e000400370016
:1004c0006128e100010032000082eb000400070017
:1004d0001101ba000200e000e8ff3a000000060047
:1004e0003159ba008301e9000c0032002159ba00e9
:1004f0008301e900080032000400e00003003a0034
:10050000e280400032a0b400f5ff370011d9ba00f4
:100510008301e900faff3a008100e800e180400031
:1005200032a0b40000000600849fbe003400f80032
:1005300004002000a40188000000fa005516800085
:100540000408200004826200e00f52000b003a0011
:1005500004408000e10f520005003200e10f52001c
:10056000050031002400200004408800030037000b
:100570000000000001003700000000009516800018
:100580000420200004826200e00f52000d003a00b7
:1005900024408000e00f52000a003a00044080002e
:1005a000e00f520007003a001400200024408800a9
:1005b0000002eb00040888002400280024088800ba
:1005c0009460a8008660a9000080fa003400f90059
:1005d0004f02be0000400600849fbe003400f800b9
:1005e00004002000a40188000000fa0004408000fc
:1005f000e00f52000c003a00951680000420200005
:1006000004826200e00f520002003a001400200051
:10061000044088000002eb00244088000002eb0048
:10062000240888000500370004002800040888001a
:10063000144080000402e800144088008460a9008f
:100640000080fa003400f9004f02be0000400600ae
:100650003600f800809fbe00829fbe00849fbe00cf
:10066000869fbe003400f80000002000a001880032
:100670000000fa0064d62e00340888001009070034
:1006800084e0a9000080fa003400f9004f03be00a6
:100690004f02be004f01be004f00be003600f90001
:1006a00000400600841f78003400f8000400200099
:1006b000a40188000000fa001400200034408800e3
:1006c0008bc0a9000080fa003400f9004f027800c6
:1006d000004006003400f800881f78000800200061
:1006e000a80188004f0478000000fa008400a900e7
:1006f0000080fa003400f900004006000000fa0013
:100700001900070004408000e10f5200050032008c
:10071000e10f52000f003900e20f520008003200d2
:100720000d0037009660a900e30007001d030700d5
:10073000e90307000002eb000440880006003700d0
:100740009660a900e40307000002eb000440880063
:1007500001003700000000009660a8000040fe0085
:1007600000000000e7ff37000200fa00053a8000b1
:100770000440200004826200e00f520015003200a5
:100780000042eb00044f7800e43a80000442780015
:100790006142620061426200614262000482fb00c9
:1007a0006102620066408000e5ff2f008502630061
:1007b0000482720064408800e43a80000c28a9009a
:1007c000e43a80000c48a9004147a9005807a90055
:1007d0000200370014c0b300044f78000002eb00a1
:1007e000143a88000002eb0064198800d102a800c6
:1007f000d122a800c8e2a8006a80a8006a60a80008
:100800006ae0a8006260a80062e0a8008660a90013
:100810008460a9009460a80084e0a90094e0a80086
:100820008200a8008400a9000042eb000440780088
:100830000ae8b700a4802000144278000440780041
:1008400009e8b70094802000144278000440780042
:1008500008e8b7000002eb002440880056080700b3
:100860001e427800e04f5200380032007206070046
:100870001708070027e6a800e58020000042eb00eb
:10088000844a7800e580200014c0b300a442980098
:10089000e580200014c0b300b4429800e580200039
:1008a0000042eb00c4429800e580200014c0b30071
:1008b000d4429800e58020000042eb00e44298001a
:1008c000e58020000042eb00f44298001100200077
:1008d000e08020006b0707000002780014479800b2
:1008e0001e429000e04f520001003a00ffff370027
:1008f000f7070700e08020000b0707008000eb00ef
:1009000010002000940607008000eb0000c0eb0000
:10091000bb0607008000eb0010002000d80607008f
:100920008bc0a9000c08a9000c28a8000c48a9003d
:100930006540800074f02f000482620064408800eb
:10094000140020000440880002003700240020002a
:10095000044088000080fa00000006000000fa0051
:10096000941680004822de00614262008482fb000f
:1009700084802000144278000482fb00848f52009f
:100980000f0032000010270021002000f1090700ad
:10099000941680004822de00614262000440780024
:1009a00008e8b70095168000041020000482620059
:1009b000e00f520002003a0014002000010037004e
:1009c0000002eb00040078000080fa00000006003e
:1009d0000000fa00941680004922de0061426200a5
:1009e0008482fb0094802000144278000482fb0083
:1009f000848f52000f0032000010270021002000d9
:100a0000d4090700941680004922de00614262008a
:100a10000440780009e8b700951680000420200003
:100a200004826200e00f520002003a00140020002d
:100a3000010037000002eb00040078000080fa009b
:100a4000000006000000fa00541680004722de0075
:100a5000614262008482fb00a4802000144278007e
:100a60000482fb00848f52000f0032000010270028
:100a700021002000b7090700541680004722de003d
:100a800061426200044078000ae8b7005516800011
:100a90000408200004826200e00f520002003a00c5
:100aa00014002000010037000002eb000400780071
:100ab0000080fa00000006000e00fa000002eb00c1
:100ac000340798000002eb001407980014c0b3002c
:100ad000044f7800e0802000f2050700e480200049
:100ae0001442780004407800a9050700004278000d
:100af0000482fb00240798002e0290000442780034
:100b0000e5802000844a7800e48020003442900090
:100b1000044078009e050700004278000482fb0034
:100b2000240798002e02900004427800e5802000ff
:100b3000b4429800e48020002442900004407800f1
:100b400093050700004278000482fb002407980008
:100b50002e02900004427800e5802000a442980014
:100b6000e48020004442900004407800880507009b
:100b7000004278000482fb00240798002e029000b7
:100b800004427800e5802000c4429800e480200000
:100b900074429000044078007d0507000042780010
:100ba0000482fb00240798002e0290000442780083
:100bb000e5802000f44298000400280084088800a2
:100bc00094e0a8000002eb0004088800240028003c
:100bd000240888009460a80001003700000000008d
:100be00014408000ea0f5200e2013e005bff070064
:100bf00000027800e00f5200060032001e02900052
:100c00000402e9001407980014c0b300044f7800f0
:100c1000130037006eff070000027800e00f52005b
:100c2000060032001e0290000402e800140798003b
:100c300014c0b300044f78000900370081ff07009b
:100c400000027800e00f5200050032003e029000e2
:100c50000402e8003407980014c0b300044f780081
:100c60001e427800e04f52007c0132003e029000ac
:100c7000050020004600200007002000860f5200db
:100c8000878f5a00ab003e0004600100040037006b
:100c90001c00370033003700770037008d00370025
:100ca000e4802000144278000482fb0024079800ae
:100cb000ae0290001e0290000482420024079800b9
:100cc0002e029000e00f520003003d000002eb00f6
:100cd0002407980006003700ae029000340620007a
:100ce000848f52000200340034062000240798004c
:100cf0002e02900004427800e5802000844a7800ab
:100d00008d003700e4802000344290000482fb0014
:100d100024079800ae0290001e0290000482420058
:100d2000240798002e029000e00f520003003c00c0
:100d30001400200024079800050037002e029000c0
:100d4000ec0f520002003400c40020002407980079
:100d50002e02900004427800e5802000b442980002
:100d600075003700e4802000244290000482fb00dc
:100d700024079800ae0290001e02900004824200f8
:100d8000240798002e029000e00f520003003c0060
:100d9000140020002407980032003700e48020006f
:100da000344290000482fb00440798004e029000f9
:100db000e20f520014003a00e48020001442780050
:100dc0000482fb00540798005e02900063026200f8
:100dd000e00f520006003a002e029000fd0f520074
:100de00020003400d4012000240798001d003700a3
:100df0002e029000fc0f52001a003400c4012000a3
:100e000024079800170037004e029000e90f5200a7
:100e1000090032004e029000e40f5200060032003a
:100e20004e029000e60f5200030032004e02900086
:100e3000eb0f520006003a002e029000fe0f520007
:100e400008003400e4012000240798000500370062
:100e50002e029000ff0f520002003400f401200027
:100e6000240798002e02900004427800e5802000bc
:100e7000a442980030003700e480200044429000f3
:100e80000482fb0024079800ae0290001e0290002e
:100e900004824200240798002e029000e00f5200c6
:100ea00002003d000002eb00240798002e02900093
:100eb000f70f52000200340074012000240798004c
:100ec0002e02900004427800e5802000c442980081
:100ed00019003700e4802000744290000482fb0077
:100ee00024079800ae0290001e0290000482420087
:100ef000240798002e029000e00f520002003d00ef
:100f00000002eb0024079800ae029000b40320001a
:100f1000848f520002003400b4032000240798009c
:100f20002e02900004427800e5802000f4429800f0
:100f3000010037000000000020c0b30001080700d6
:100f4000004278000440780017e8b7000040eb004a
:100f5000fc070700004278000440780018e8b7005a
:100f6000e4802000144278008482fb00a40020006a
:100f7000110009008482d800000278000442780041
:100f800004407800ef070700004278000440780032
:100f900019e8b700e4802000144278008482fb0046
:100fa000a4002000110009008482d800010278000a
:100fb0000442780004407800e2070700004278000d
:100fc000044078001ae8b700e48020003442900022
:100fd0008482fb00a4002000110009008482d80054
:100fe000000278000442780004407800d50707002a
:100ff00000427800044078001be8b700e48020003d
:10100000344290008482fb00a400200011000900fb
:101010008482d800010278000442780004407800fd
:10102000c807070000427800044078001ce8b700b9
:10103000e4802000244290008482fb00a400200071
:10104000110009008482d800000278000442780070
:1010500004407800bb070700004278000440780095
:101060001de8b700e4802000244290008482fb0049
:10107000a4002000110009008482d8000102780039
:101080000442780004407800ae0707000042780070
:10109000044078001ee8b700e4802000444290003d
:1010a0008482fb00a4002000110009008482d80083
:1010b000000278000442780004407800a10707008d
:1010c000004278000440780021e8b700e480200066
:1010d000444290008482fb00a4002000110009001b
:1010e0008482d8000102780004427800044078002d
:1010f00094070700004278000440780022e8b70017
:10110000e4802000744290008482fb00a400200050
:10111000110009008482d80000027800044278009f
:1011200004407800870707000042780004407800f8
:1011300023e8b700e4802000744290008482fb0022
:10114000a4002000110009008482d8000102780068
:1011500004427800044078007a07070000427800d3
:101160000440780024e8b7003e029000050020000b
:101170004600200007002000860f5200878f5a008b
:101180002f003e000460010004003700100037000b
:10119000160037001c003700220037008040eb00ab
:1011a00010c0b300b907070011c0b30010c0b300ee
:1011b000b607070021c0b30010c0b300b307070093
:1011c00031c0b30010c0b300b00707001d003700e6
:1011d00041c0b30010c0b300ac07070051c0b3005a
:1011e00010c0b300a90707001600370061c0b300a4
:1011f00010c0b300a507070071c0b30010c0b30052
:10120000a20707000f003700a1c0b30010c0b30051
:101210009e070700b1c0b30010c0b3009b070700d2
:1012200008003700c1c0b30010c0b3009707070023
:10123000d1c0b30010c0b30094070700010037000d
:10124000000000000002eb00140798000002eb0011
:10125000144088000042eb00044f78003e029000ea
:10126000e40f52005dfe3600e48020001442780056
:1012700004407800d6030700004278000482fb0097
:10128000240798002e02900004427800e580200098
:10129000844a7800e48020003442900004407800c2
:1012a000cb030700004278000482fb00240798006b
:1012b0002e02900004427800e5802000b44298009d
:1012c000e48020002442900004407800c00307001e
:1012d000004278000482fb00240798002e02900050
:1012e00004427800e5802000a4429800e4802000b9
:1012f0004442900004407800b503070000427800a3
:101300000482fb00240798002e029000044278001b
:10131000e5802000c4429800e480200074429000e0
:1013200004407800aa030700004278000482fb0012
:10133000240798002e02900004427800e5802000e7
:10134000f4429800e58020000042eb00e44298005f
:1013500011002000e0802000ca040700000278008d
:10136000444f98004e4a9000e04f520003003a006c
:10137000ffff370000000000010037000000000000
:101380000002eb008408880094e0a90066060700cc
:1013900005e1a9000002eb00144088000080fa007b
:1013a000000006000800fa000002eb003407980075
:1013b0000002eb001407980014c0b300044f78003b
:1013c00050c0b300df0607000042780004407800f8
:1013d00017e8b70011c0b30090c7b3005307070068
:1013e00021c0b30080c7b300500707008040eb0066
:1013f00010c0b3002507070011c0b30010c0b30030
:1014000022070700040028008408880094e0a80050
:101410000002eb000408880024002800240888004b
:101420009460a80001003700000000001440800014
:10143000ea0f52009e003e0048fd070000027800bf
:10144000e00f5200060032001e0290000402e90084
:101450001407980014c0b300044f7800130037003d
:101460005bfd070000027800e00f5200060032002a
:101470001e0290000402e8001407980014c0b30094
:10148000044f7800090037006efd07000002780065
:10149000e00f5200050032003e0290000402e80016
:1014a0003407980014c0b300044f78001e4278003f
:1014b000e04f52007a0032003e029000e10f5200ed
:1014c00023003200e10f520003003900e20f520006
:1014d0003f0032005e0037006440800061426200dd
:1014e0000482fb0024079800ae0290001e029000c8
:1014f00004824200240798002e029000e00f520060
:1015000003003d0014002000240798000500370068
:101510002e029000e10f5200020034000002eb00a6
:10152000240798002e029000044278006142620075
:101530000482fb006102620066408000e5ff2f002c
:101540008502630004827200644088004000370016
:10155000644080000402d100614262000482fb000a
:1015600024079800ae0290001e0290000482420000
:10157000240798002e029000e00f520003003d0067
:101580001400200024079800050037002e02900068
:10159000e10f5200020034000002eb002407980023
:1015a0002e02900004427800614262000482fb0037
:1015b000610262000402420066408000d5ff2f00f5
:1015c00085026300048272006440880020003700b6
:1015d000644080004222de00614262000482fb001f
:1015e00024079800ae0290001e0290000482420080
:1015f000240798002e029000e00f520003003d00e7
:101600001400200024079800050037002e029000e7
:10161000e10f5200020034000002eb0024079800a2
:101620002e02900004427800614262000482fb00b6
:10163000610262004222dd0066408000b5ff2f009b
:10164000850263000482720064408800000000008c
:101650003e029000044278000440780039060700fa
:1016600000427800044078001be8b7002e0290008a
:1016700004427800044078003206070000427800f7
:10168000044078001de8b7000002eb001407980042
:101690000002eb00144088000042eb00044f780089
:1016a0003e029000e20f52005fff3600010037005b
:1016b000000000000002eb008408880094e0a9000c
:1016c0009905070005e1a9000002eb00144088001d
:1016d0000080fa00000006000200fa00e08020000e
:1016e000f0020700e48020001442780004407800f3
:1016f000a702070000427800044f7800e480200031
:101700001e4a7800e48020003442900004407800b3
:101710009f02070000427800044f7800e480200018
:101720001e40780030429800e4802000244290005f
:10173000044078009602070000427800044f7800c9
:10174000e48020009e40780021429800e480200040
:1017500044429000044078008d0207000042780067
:10176000044f7800e48020009e42780045429800b3
:10177000e480200074429000044078008402070056
:1017800000427800044f7800e48020001e4078007a
:1017900070429800e4802000644290000440780089
:1017a0007b02070000427800044f7800e4802000ac
:1017b0009e407800614298006440800062026200ae
:1017c000e00f52000101320020c0b300dd05070028
:1017d000004278000440780017e8b7000040eb00b2
:1017e000d8050700004278000440780018e8b700e8
:1017f000e4802000144278008482fb00a4002000d2
:10180000110009008482d8000002780004427800a8
:1018100004407800cb0507000042780004407800bf
:1018200019e8b700e4802000144278008482fb00ad
:10183000a4002000110009008482d8000102780071
:101840000442780004407800be050700004278009a
:10185000044078001ae8b700e48020003442900089
:101860008482fb00a4002000110009008482d800bb
:10187000000278000442780004407800b1050700b7
:1018800000427800044078001be8b700e4802000a4
:10189000344290008482fb00a40020001100090063
:1018a0008482d80001027800044278000440780065
:1018b000a405070000427800044078001ce8b70047
:1018c000e4802000244290008482fb00a4002000d9
:1018d000110009008482d8000002780004427800d8
:1018e0000440780097050700004278000440780023
:1018f0001de8b700e4802000244290008482fb00b1
:10190000a4002000110009008482d80001027800a0
:1019100004427800044078008a05070000427800fd
:10192000044078001ee8b700644080006102620055
:10193000e00f52003e003200e4802000444290005c
:101940008482fb00a4002000110009008482d800da
:10195000000278000442780004407800790507000e
:10196000004278000440780021e8b700e4802000bd
:10197000444290008482fb00a40020001100090072
:101980008482d80001027800044278000440780084
:101990006c050700004278000440780022e8b70098
:1019a000e4802000744290008482fb00a4002000a8
:1019b000110009008482d8000002780004427800f7
:1019c000044078005f05070000427800044078007a
:1019d00023e8b700e4802000744290008482fb007a
:1019e000a4002000110009008482d80001027800c0
:1019f0000442780004407800520507000042780055
:101a00000440780024e8b70031c0b30010c0b30030
:101a10009e05070051c0b30010c0b3009b0507002e
:101a2000b1c0b30010c0b3009805070051013700e2
:101a3000e480200044429000e04f520009003a0048
:101a4000e4802000444290006c424200e580200087
:101a5000c4429800d1c0b30070c7b300b3050700fb
:101a60001c003700e480200044429000eb4f5200fd
:101a700004003e00d1c0b30070c7b300ab0507003f
:101a800014003700e480200044429000ec4f5200e4
:101a900004003a00d1c0b30030c7b300a30507006b
:101aa0000c003700e480200044429000ec4f5200cc
:101ab00008003600e4802000444290006c4252004e
:101ac000e5802000c4429800d1c0b30030c7b30005
:101ad00096050700e4802000444290008482fb00c9
:101ae000a4002000110009008482d80000027800c0
:101af0000442780004407800120507000042780094
:101b00000440780020e8b700e480200044429000c0
:101b10008482fb00a4002000110009008482d80008
:101b200001027800044278000440780005050700af
:101b3000004278000440780021e8b700e4802000eb
:101b4000744290008482fb00a40020001100090070
:101b50008482d800000278000442780004407800b3
:101b6000f8040700004278000440780022e8b7003b
:101b7000e4802000744290008482fb00a4002000d6
:101b8000110009008482d800010278000442780024
:101b900004407800eb04070000427800044078001d
:101ba00023e8b70031c0b30010c0b3003705070009
:101bb00051c0b30010c0b30034050700a1c0b3008a
:101bc00010c0b30031050700ea0037006440800010
:101bd00064026200e00f5200820032006440800024
:101be00061026200e00f520029003a00e480200008
:101bf00044429000e04f520009003a00e480200087
:101c0000444290006c424200e5802000c4429800ab
:101c100061c0b30070c7b300440507001c00370063
:101c2000e480200044429000eb4f520004003e004c
:101c300061c0b30070c7b3003c0507001400370053
:101c4000e480200044429000ec4f520004003a002f
:101c500061c0b30030c7b300340507000c00370083
:101c6000e480200044429000ec4f5200080036000f
:101c7000e4802000444290006c425200e580200045
:101c8000c442980061c0b30030c7b3002705070005
:101c9000e4802000444290008482fb00a4002000e5
:101ca000110009008482d800000278000442780004
:101cb00004407800a3040700004278000440780044
:101cc00017e8b700e4802000444290008482fb00c3
:101cd000a4002000110009008482d80001027800cd
:101ce000044278000440780096040700004278001f
:101cf0000440780018e8b700e480200074429000a7
:101d00008482fb00a4002000110009008482d80016
:101d1000000278000442780004407800890407003b
:101d2000004278000440780019e8b700e480200001
:101d3000744290008482fb00a4002000110009007e
:101d40008482d800010278000442780004407800c0
:101d50007c04070000427800044078001ae8b700cd
:101d6000e4802000644290008482fb00a4002000f4
:101d7000110009008482d800000278000442780033
:101d8000044078006f0407000042780004407800a7
:101d90001be8b700e4802000644290008482fb00ce
:101da000a4002000110009008482d80001027800fc
:101db0000442780004407800620407000042780082
:101dc000044078001ce8b70011c0b30010c0b30095
:101dd000ae04070031c0b30010c0b300ab0407006d
:101de000640037006440800061026200e00f52002e
:101df00029003a00e480200044429000e04f520065
:101e000009003a00e4802000444290006c42420005
:101e1000e5802000c442980041c0b30070c7b30001
:101e2000c20407001c003700e480200044429000f8
:101e3000eb4f520004003e0041c0b30070c7b30036
:101e4000ba04070014003700e480200044429000e8
:101e5000ec4f520004003a0041c0b30030c7b30059
:101e6000b20407000c003700e480200044429000d8
:101e7000ec4f520008003600e480200044429000fd
:101e80006c425200e5802000c442980041c0b3007b
:101e900030c7b300a5040700e4802000444290004e
:101ea0008482fb00a4002000110009008482d80075
:101eb0000002780004427800044078002104070002
:101ec000004278000440780017e8b700e480200062
:101ed000444290008482fb00a4002000110009000d
:101ee0008482d8000102780004427800044078001f
:101ef00014040700004278000440780018e8b70096
:101f0000e4802000744290008482fb00a400200042
:101f1000110009008482d800000278000442780091
:101f2000044078000704070000427800044078006d
:101f300019e8b700e4802000744290008482fb001e
:101f4000a4002000110009008482d800010278005a
:101f50000442780004407800fa0307000042780049
:101f6000044078001ae8b70011c0b30010c0b300f5
:101f70004604070064d62e003408880004002800b8
:101f80008408880094e0a8000002eb0004088800a0
:101f900024002800240888009460a8006440800081
:101fa00064026200e00f52000800320064408000ca
:101fb00062026200e00f520004003a000002eb00ef
:101fc0003440880023e6a8009bc0a8000002eb0074
:101fd000144088005a0037006440800064026200a8
:101fe000e00f520054003200644080006202620040
:101ff000e00f520050003a0034408000e10f5200e0
:102000004d003a00e0802000a6000700e480200098
:1020100074429000044078005d00070000427800a0
:10202000044f7800e48020009e40780071429800c0
:10203000e4802000744290008482fb00a400200011
:10204000110009008482d800000278000442780060
:1020500004407800bb030700004278000440780089
:1020600019e8b700e4802000744290008482fb00ed
:10207000a4002000110009008482d8000102780029
:102080000442780004407800ae0307000042780064
:10209000044078001ae8b70031c0b30010c0b300a4
:1020a000fa030700e48020006442900004407800b6
:1020b0003700070000427800044f7800e4802000d9
:1020c0009e40780061429800e480200064429000c5
:1020d0008482fb00a4002000110009008482d80043
:1020e000000278000442780004407800950307005d
:1020f00000427800044078001be8b700e48020002c
:10210000644290008482fb00a400200011000900ba
:102110008482d800010278000442780004407800ec
:102120008803070000427800044078001ce8b700ec
:102130000002eb00344088000140fe000000000077
:1021400014408000e20f5200a3ff360005e1a90011
:1021500011e1a9006440800064026200e00f5200b7
:10216000080032006440800062026200e00f52000a
:1021700004003a0023e6a9009bc0a9000002eb007e
:1021800034408800e80207000080fa0000000600e2
:102190000400fa00204798002e4290000482fb00c1
:1021a0004422de00044278006a22b900040278006a
:1021b000044f78002e4290006f4262001e4f420092
:1021c0001e427800044078000080fa0000000600fb
:1021d0000400fa00204798002e4290008482fb0001
:1021e000a4002000110009008482d80000027800b9
:1021f00004427800450020000522dd00044f7800ed
:102200002e4290008482fb00a400200011000900ef
:102210008482d80001027800044278001e4f7200c8
:102220001e427800044078000080fa00000006009a
:102230000040da000000fe000000fa00143a8000be
:10224000040378000610a000640420007505200037
:1022500027742000844b7800854b7800864b7800eb
:102260000002eb0034318800353180000400280082
:1022700004826200e00f5200070032003531800016
:102280000400220004826200e00f520001003a00c4
:102290008f01070027e6a90027a6a9000080fa0001
:1022a000000006000a00fa0040079800353180005f
:1022b000f4cf2f0004826200343188003531800071
:1022c00004302000048272003431880025318000ff
:1022d0004e029000050a7800253180004e029000e1
:1022e00015029800253180004e02900025029800ca
:1022f000253180004e029000350298003531800073
:10230000f4cf2f0004826200343188003531800020
:1023100004302000048272003431880024318000af
:10232000040f7800243180001407980024318000c5
:102330002407980024318000340798004e02900052
:10234000e44290006e42900084cf5200d7ff3a00e2
:102350000080fa00000006000600fa00100798004e
:1023600021079800143180004f22de0004427800db
:102370000482fb00040f78001e027800e00f520078
:102380000b0032002e029000e00f520002003200db
:1023900023e6a90006003700000000003531800068
:1023a0000400210004826200e00f5200fbff3a00ab
:1023b0001e029000044278006f4262000482fb001b
:1023c0006f0262004a22dd0016318000f53f2c00ca
:1023d0008502630004827200143188001e027800b6
:1023e000e00f5200040032002e029000e00f520075
:1023f0000100320023e6a8000080fa000000060079
:102400000600fa0020479800210798001431800048
:102410004f22de00044278000482fb00040f7800a3
:102420001e027800e00f52000a0032002e029000d7
:10243000e00f52000200320023e6a9000500370039
:10244000353180000400210004826200e00f520058
:10245000fbff3a002e40900022e6b7001e027800f3
:10246000e00f5200040032002e029000e00f5200f4
:102470000100320023e6a8000080fa0000000600f8
:102480000600fa0010079800210798001431800018
:102490004f22de00044278000482fb00040f780023
:1024a0001e027800e00f52000b0032002e02900056
:1024b000e00f52000200320023e6a90006003700b8
:1024c0000000000035318000040021000482620019
:1024d000e00f5200fbff3a001e0290000442780019
:1024e000614262000482fb00610262004e22dd0054
:1024f00016318000f5ff2b00850263000482720014
:10250000143188001e027800e00f520004003200ef
:102510002e029000e00f52000100320023e6a800d6
:102520000080fa00000006000600fa00200798006c
:102530002e029000f442900094c5b30084cf520064
:102540001f003e002e029000e442900094c5b300ac
:1025500084cf52001a003e002e0290005442900098
:10256000e64f520016003e002e029000c44290003a
:1025700044c2b30084cf520011003e002e029000ee
:1025800034429000f24f52000d003e002e029000a7
:1025900034429000e04f5200090032002e029000b9
:1025a000a442900014c3b30084cf520004003e0044
:1025b0002e02900024429000e04f520002003a00a8
:1025c0000002eb002c003700343180004d22de0089
:1025d000614262000482fb00040f78001e02780052
:1025e000e00f520001003a00b900070014318000ea
:1025f0004f22de00044278000482fb00140798009a
:102600001e029000e00f52000100320023e6a900f4
:1026100015318000f4cf2f0004826200143188004d
:1026200015318000042020000482720014318800db
:102630002e02900014029000043188002e029000b7
:1026400024029000043188002e0290003402900091
:10265000043188001e029000e00f52000100320099
:1026600023e6a8001e027800e00f520001003a00a5
:1026700027a6a90014002000040078000080fa00ba
:10268000000006001000fa0060079800710798002b
:102690000002eb00040f78006e029000f4429000fc
:1026a00094c5b30084cf520024003e006e02900017
:1026b000e442900094c5b30084cf52001f003e0056
:1026c0006e02900054429000e64f52001b003e0004
:1026d0006e029000c442900044c2b30084cf520006
:1026e00016003e006e02900034429000f24f5200fd
:1026f00012003e006e02900034429000e04f520003
:102700000e0032006e029000a442900014c3b30089
:1027100084cf520009003e006e02900024429000d7
:10272000e04f5200050032006e02900094427800a3
:1027300094c9b30084cf5200020036000002eb00bf
:10274000600037007e029000e00f52000e00320061
:10275000140280004522de00674262002447980090
:102760009402800024079800ff3ffc0014028000c0
:102770000450a0000460a0000470a00014028800af
:102780002e02900094028800343180004d22de0039
:10279000614262000482fb00340798003e02900010
:1027a000e00f520001003a00490007003431800078
:1027b0004f22de00044278000482fb0044079800a8
:1027c0004e029000e00f52000600320014318000eb
:1027d0004f22de00044278000482fb00040f7800e0
:1027e00027e6a90035318000f4cf2f000482620073
:1027f00034318800353180000430200004827200ba
:10280000343188006e029000140278002431880070
:102810006e02900014029000243188006e02900035
:1028200024029000243188006e029000340290004f
:10283000243188004e029000e00f52000a0032005e
:1028400027e6a8001e027800e00f520001003200c7
:1028500023e6a8003e029000e00f5200060032007e
:102860001b000700040037003e029000e00f5200fa
:1028700001003a0027a6a9007e029000e00f520056
:102880000f0032009402800054079800ff3ffc00c4
:102890002e429000674262000482fb0067026200e1
:1028a0004522dd0016028000f5f12f00850263004d
:1028b00004827200140288005e0290009402880074
:1028c00014002000040078000080fa0000000600d8
:1028d0000600fa00881f7800140280004522de00fe
:1028e00067426200044f7800940280001407980049
:1028f000ff3ffc00140280000450a0000460a00010
:102900000470a000140288001e0290009402880047
:1029100058052000383b8800a80a2000383b880072
:1029200027a6a8009402800024079800ff3ffc001f
:102930009e42780067c262000482fb006702620068
:102940004522dd0016028000f5f12f0085026300ac
:1029500004827200140288002e0290009402880003
:102960004f0478000080fa00000006006022b800e2
:10297000060220000000d0008180d2000482d20034
:102980008582d2000000a0000202520083825a0019
:10299000030031000202420083824a000000a100cd
:1029a0000603e900f3ff3a0000000600efff07000e
:0829b0000400be000000060057
:020000040000fa
:04aff00035ff000029
:020000040000fa
:04aff400c175000023
:020000040000fa
:04aff8005ff80000fe
:020000040000fa
:04affc007f3d000095
:020000040000fa
:100008001811000018110000181100001811000044
:100018001811000018110000181100001811000034
:100028006a0300001811000018110000ec0200001b
:100038001811000018110000181100002803000012
:100048001811000018110000181100001811000004
:1000580018110000181100001811000018110000f4
:100068001811000018110000181100009402000077
:1000780018110000181100001811000018110000d4
:1000880018110000181100001811000018110000c4
:1000980018110000181100001811000018110000b4
:1000a80018110000181100001811000018110000a4
:1000b8001811000018110000181100001811000094
:1000c8001811000018110000181100001811000084
:1000d8001811000018110000181100001811000074
:1000e8001811000018110000181100001811000064
:1000f8001811000018110000181100001811000054
:100108001811000018110000181100001811000043
:100118001811000018110000520300001811000007
:100128001811000018110000181100001811000023
:100138001811000018110000181100001811000013
:100148001811000018110000181100001811000003
:1001580018110000181100001811000018110000f3
:1001680018110000181100001811000018110000e3
:1001780018110000181100001811000018110000d3
:1001880018110000181100001811000018110000c3
:1001980018110000181100001811000018110000b3
:1001a80018110000181100001811000018110000a3
:1001b8001811000018110000181100001811000093
:1001c8001811000018110000181100001811000083
:1001d8001811000018110000181100001811000073
:1001e8001811000018110000181100001811000063
:0801f8001811000018110000ad
:020000040000fa
:100208001811000018110000181100001811000042
:100218001811000018110000181100001811000032
:100228006a0300001811000018110000ec02000019
:100238001811000018110000181100002803000010
:100248001811000018110000181100001811000002
:1002580018110000181100001811000018110000f2
:100268001811000018110000181100009402000075
:1002780018110000181100001811000018110000d2
:1002880018110000181100001811000018110000c2
:1002980018110000181100001811000018110000b2
:1002a80018110000181100001811000018110000a2
:1002b8001811000018110000181100001811000092
:1002c8001811000018110000181100001811000082
:1002d8001811000018110000181100001811000072
:1002e8001811000018110000181100001811000062
:1002f8001811000018110000181100001811000052
:100308001811000018110000181100001811000041
:100318001811000018110000520300001811000005
:100328001811000018110000181100001811000021
:100338001811000018110000181100001811000011
:100348001811000018110000181100001811000001
:1003580018110000181100001811000018110000f1
:1003680018110000181100001811000018110000e1
:1003780018110000181100001811000018110000d1
:1003880018110000181100001811000018110000c1
:1003980018110000181100001811000018110000b1
:1003a80018110000181100001811000018110000a1
:1003b8001811000018110000181100001811000091
:1003c8001811000018110000181100001811000081
:1003d8001811000018110000181100001811000071
:1003e8001811000018110000181100001811000061
:0803f8001811000018110000ab
:020000040000fa
:1029b8000200fa00da0007000002eb006419880040
:1029c800d402a900d422a900d442a900d462a90043
:1029d800d482a900d4a2a900d4c2a900d4e2a90033
:1029e800d002a900d022a900d042a900d062a90033
:1029f800d082a900d0a2a900d0c2a900d0e2a90023
:102a0800cc02a800cc22a800cc42a800cc62a80026
:102a1800cd02a800cd22a800cd42a800cd62a80012
:102a2800cd82a800cda2a800cdc2a800cde2a80002
:102a3800c402a800c422a800c802a900c822a9008c
:102a4800c842a900c862a900c902a900c922a900f0
:102a5800c942a900c962a900c982a900c9a2a900de
:102a6800c9c2a900c9e2a900c002a900c022a900e0
:102a78000042eb00044f7800070037001e40780042
:102a88008082fb0074812000848242000042eb00b7
:102a9800844a78001e4fe8001e427800ed4f52002d
:102aa800f6ff36000042eb000440780016e8b70055
:102ab8000080fa00000006000200fa00cc02a8001c
:102ac800cc22a800cc42a800cc62a800cd02a80065
:102ad800cd22a800cd42a800cd62a800cd82a800d2
:102ae800cda2a800cdc2a800cde2a800c402a800cb
:102af800c422a80064812000144278008482fb006c
:102b08007481200004824200144f78001e4078002f
:102b18008082fb000408200004826200e00f52005b
:102b280002003400d4e2a80001003700d4e2a90072
:102b38001e4278008482fb000404200004826200a4
:102b4800e00f520002003400d4c2a8000100370090
:102b5800d4c2a9001e4078008082fb000402200035
:102b680004826200e00f520002003400d4a2a800e0
:102b780001003700d4a2a9009e4278000582fb001c
:102b880070026200e00f520002003400d482a800f4
:102b980001003700d482a9001e4078000082fb00a3
:102ba80068026200e00f520002003400d462a800fc
:102bb80001003700d462a9009e4278000582fb001c
:102bc80064026200e00f520002003400d442a80000
:102bd80001003700d442a9001e4078000082fb00a3
:102be80062026200e00f520002003400d422a80002
:102bf80001003700d422a9009e4278000582fb001c
:102c080061026200e00f520002003400d402a80002
:102c180001003700d402a900648120001442780022
:102c28000482fb00cfa2de00d600200007002000af
:102c3800860f5200878f5a002b003e000460010067
:102c48000d0037000e0037000f0037001000370066
:102c58001100370012003700130037001400370046
:102c68001500370016003700170037001800370026
:102c7800190037001a003700cc02a9001a003700e3
:102c8800cc22a90018003700cc42a9001600370052
:102c9800cc62a90014003700cd02a9001200370049
:102ca800cd22a90010003700cd42a9000e00370040
:102cb800cd62a9000c003700cd82a9000a003700b8
:102cc800cda2a90008003700cdc2a9000600370030
:102cd800cde2a90004003700c402a90002003700b1
:102ce800c422a9000000000064812000144278007a
:102cf8000442e8000440780016e8b7006481200028
:102d080014427800ed4f5200030036000042eb00f9
:102d18000440780016e8b7000080fa0000000600ba
:102d28000200fa00cc02a800cc22a800cc42a800dd
:102d3800cc62a800cd02a800cd22a800cd42a800f0
:102d4800cd62a800cd82a800cda2a800cdc2a8005f
:102d5800cde2a800c402a800c422a8000042eb00eb
:102d6800044f7800070037001e4278008482fb0079
:102d780074812000848242000042eb00844a78007b
:102d88001e4fe8001e427800ed4f5200f6ff360055
:102d98000080fa00000006000c00fa00881f780086
:102da800400798005107980004a02c00a5b92300fb
:102db800048fbe000042eb00444798003100370002
:102dc8004e409000504798001e01be004e009000f3
:102dd800de009000e3fe07000002be006447980092
:102de8005e4290000484fb006e4090005300070090
:102df800004278007581200085024400844a7800ea
:102e08006e4290000482fb00050020001e0378003b
:102e180005b3b900060378009e03900004b8b90012
:102e28008003780007034300040278009e027800bc
:102e38000522b80005034300860278004e0390007f
:102e4800de0390000401be000600be00d5fe0700a8
:102e58000002be0044079800550798001e02be00f5
:102e6800a2002000030020000400be00bdfe0700f1
:102e78000002be00048fbe004e4290000442e800eb
:102e8800444798004e429000ec4f5200ccff360069
:102e98004e029000044278000440780027000700a2
:102ea800004278000440780024e8b7004f04780016
:102eb8000080fa00000006000400fa0010079800dd
:102ec8009e029000f40f2000848f5200020036000a
:102ed800f40f2000140798001e0290004422de0020
:102ee800044f78001e407800140007000042780064
:102ef8000440780018e8b7001e4278008482fb007e
:102f080004ff2f0004aab900040278009e02900072
:102f180004824200140798001e02900004427800c0
:102f2800044078000500070000427800044078005b
:102f380017e8b7000080fa00000006000400fa0055
:102f4800204798000042eb00044f78002e42900082
:102f58000482fb00cfa2de00f6002000070020005c
:102f6800860f5200878f5a0041003e00046001001e
:102f78000f00370011003700130037001500370025
:102f880017003700190037001b0037001d003700f5
:102f98001f003700210037002300370025003700c5
:102fa80027003700290037002b0037002d00370095
:102fb800f4c3b300044f78002e00370064c0b30098
:102fc800044f78002b003700b4c5b300044f7800d5
:102fd80028003700f4c4b300044f780025003700f8
:102fe80064c6b300044f780022003700d4c6b3008b
:102ff800044f78001f003700d4c7b300044f78008f
:103008001c00370074c0b300044f78001900370063
:10301800f4c7b300044f780016003700f4c6b300b5
:10302800044f78001300370074c7b300044f7800ca
:1030380010003700c4c7b300044f78000d003700f4
:10304800d4c3b300044f78000a003700e4c5b300c6
:10305800044f78000700370094c7b300044f780086
:103068000400370014c7b300044f7800010037008c
:10307800000000001e427800044078000080fa003a
:10308800000006000200fa00004f7800114798007f
:103098001e429000e04f52001f0035009e4278000b
:1030a8000582fb006102620004427800e04f520092
:1030b8000d0032001e4290000403fb001e429000e7
:1030c8008402fb007481200004824200944278004c
:1030d80004c8b30004c27200758120008502430051
:1030e800844a78000d0037001e4290000403fb005c
:1030f8001e4290008402fb0074812000048242007a
:10310800144278000474a1007581200085024300f0
:10311800844a780001003700000000000080fa00af
:10312800000006000200fa00004f780011479800de
:103138001e4290008482fb007481200004824200b9
:0c3148001e4a78000080fa00000006001b
:020000040000fa
:10315400f03fb1000180b10006003500ee03090024
:1031640000000000403fb1000180b100fbff3d00c2
:103174001000b000203fb0000200350000800900bc
:0831840000000000000006003d
:020000040000fa
:10318c0016080000100000000000000000080000fd
:0c319c0016000000000000000000000011
:00000001FF
